:020000040800F2
:10000000A005002041180008211700082317000848
:10001000251700082717000829170008000000000E
:100020000000000000000000000000002B17000886
:100030002D170008000000002F17000831170008D6
:1000400075180008791800087D1800088118000844
:1000500085180008891800088D18000891180008F4
:1000600095180008991800089D180008A1180008A4
:10007000A5180008A9180008AD180008B118000854
:10008000B5180008B9180008BD18000800000000E5
:10009000000000000000000000000000C11800087F
:1000A000C5180008351700083B170008C9180008D4
:1000B000CD180008D1180008D5180008D918000874
:1000C000DD180008E1180008E5180008E918000824
:1000D000ED1800084B170008F1180008F518000883
:1000E000F9180008FD1800080119000800000000B8
:1000F0000000000000000000000000000000000000
:1001000000000000000000000000000000000000EF
:1001100000000000000000005117000857170008F9
:1001200038B5040001D1012032BD00F021F808B932
:1001300000F022F800F012F800F023F8FFE7416128
:1001400000F001F832BD2068C16841F40051C1607F
:100150000020686020216970A970704724206870B1
:100160002068C16821F40051C160204600F0AFB999
:1001700004F138056878704700212970204600F0A6
:100180007ABA2068016921F49041016120684169CF
:1001900021F02A0170472DE9F843054605F138079B
:1001A0000C46B87820281646994646D1002C14BF34
:1001B000002E012042D0387801283ED0012139702C
:1001C000002078602222BA7000F09CFAAE8580464A
:1001D000EE8505E028684168C1F3080124F8021B98
:1001E000E88D68B3E88D411EE9854346A868CDF8DF
:1001F0000090B0F5805F0ED10022202100F028F899
:1002000070B928690028E5D02968486800F0FF0027
:1002100024F8010BE4E70022202100F019F808B1CE
:1002200003200BE0286929680028486802D104F8F7
:10023000010BD5E700F07F00F9E70220BDE8F2836B
:100240002020B870002139700020F7E700228021BB
:100250002846ACE0416921F040014161606B704784
:1002600038B5044625682968EA686B6911F00F0003
:1002700007D188065DD593065BD52046BDE83240A0
:10028000DCE0D80702D412F4907F52D0C80705D51D
:10029000D50503D5E06B40F00100E063480705D5C4
:1002A000DD0703D5E06B40F00200E063880705D569
:1002B000DD0703D5E06B40F00400E063080705D5D7
:1002C000DB0703D5E06B40F00800E063E06B00283B
:1002D0006CD0880604D5910644BF204600F0AEF8E5
:1002E00020684069E16B0A0701D440061BD520460F
:1002F00000F08FF8206841694A060FD5FFF7AAFF82
:1003000060B10FF22D114163606B00F001FA00281B
:100310004CD0606B416BBDE8344008472046BDE8D7
:10032000324000F053BA204600F050FA0020E0635B
:1003300031BD08062AD5130628D594F8390021289E
:1003400034D1A068B0F5805F206A0BD10188C1F379
:100350000801696020690028206A0CBF811C411CCB
:10036000216203E0411C216200786860E08C401E3D
:10037000E08480B2D0B92068C16821F08001C160FA
:100380002068C16841F04001C16031BD48060DD50B
:1003900051060BD5E86820F04000E860202184F881
:1003A00039102046BDE8324000F011BA31BD2DE9C8
:1003B000F041069C05460E4690461F462868016897
:1003C0003140B1420CBF01200020404517D114F14B
:1003D000010FF3D024B100F095F9C01B8442EDD297
:1003E0002868C16821F4D07100F00CF805F13800DC
:1003F00020214170817000210170032000E0002065
:10040000BDE8F081C160286841694908490041613F
:1004100070470168CA6822F49072CA6001684A692C
:10042000520852004A61202180F83A1070470000BB
:10043000406A0021C185C18400F0C8B980B590F838
:100440003A10222941D18168B1F5805F12D101694A
:100450000368826A0029596805D1C1F30801118037
:10046000826A911C04E001F0FF011180826A511C34
:1004700081620FE001690029816A04D14A1C82620D
:1004800003685A6805E04A1C826203685A6802F0F1
:100490007F020A70C18D491EC18589B299B9016870
:1004A000CA6822F02002CA600168CA6822F4807219
:1004B000CA6001684A69520852004A61202180F8E6
:1004C0003A1000F085F9002002BD022002BD2DE99E
:1004D000F0470446642522681169E06821F4405120
:1004E000014311611926D3684648A1680340206979
:1004F0000B4361690343E0690B430343D3605169D4
:10050000A06921F44071014351613F48E169B1F5AF
:10051000004F39D182420ED100F0A8FB074600F00F
:10052000A5FB804600F0A2FB814600F09FFB8246BF
:1005300000F09CFB0DE000F091FB074600F08EFB05
:10054000804600F08BFB814600F088FB824600F07D
:1005500085FB6168490000F068F8AE46BCFBFEFE12
:1005600005FB1E77FF0032376423B7FBF3F35B0014
:1005700003F4F87300F04AF8ED0032356420B5FB5F
:10058000F0F000F0070037E082420ED100F06EFB81
:10059000074600F06BFB804600F068FB814600F0E8
:1005A00065FB824600F062FB0DE000F057FB07465A
:1005B00000F054FB804600F051FB814600F04EFBFA
:1005C000824600F04BFB6168890000F02EF8AE46D1
:1005D000BCFBFEFE05FB1E773F0132376423B7FBF1
:1005E000F3F303F0F00300F011F82D01323564202D
:1005F000B5FBF0F000F00F002168C3188B60BDE878
:10060000F0870000F369FFFF0038014003EB02139D
:1006100006FB0AF74643B7FBF1F2B6FBF1F06421A3
:10062000B0FBF1F105FB112570477743B7FBF1F300
:100630006422B3FBF2F206FB08F3B3FBF1F706FB0F
:1006400009F3B3FBF1FC704780B52A482A490160E1
:100650004FF4E13200230C2142608360C3600361E8
:1006600041618361C361FFF75BFD18B1BDE80140E3
:1006700000F009BC01BD30B585B0044601A81021C9
:1006800000F002FC24681C4DAC4230D11B481C4CCD
:10069000016841F480410160026802F480420092E6
:1006A0000099026842F0040202604FF40071006891
:1006B00000F00400009002220098019102920321B0
:1006C0000491204601A900F0E3FB4FF48060002173
:1006D000019002910391204601A900F0D9FB00226C
:1006E0000021252000F0CEFC252000F0E8FC05B01C
:1006F00030BD0000580100200038014018100240B1
:100700000008014001484068704700BF0000002019
:1007100038B590F821200024022A00F1340103D0DA
:100720000420486001243BE00268136823F00E03B4
:1007300013600268DFF8783015686D086D00156089
:1007400002689A4208BF012222D0DFF868309A423C
:1007500008BF10221CD0DFF860309A4208BF4FF467
:10076000807215D0DFF854309A4208BF4FF480529F
:100770000ED0DFF84C309A4208BF4FF4803207D0D9
:10078000DFF840309A420CBF4FF480124FF0807275
:10079000DFF834301A6000F005F8096801B18847C5
:1007A000204632BD012280F8212080F82040704789
:1007B000080002401C000240300002404400024099
:1007C000580002406C00024004000240704770472D
:1007D000704730B4002513E050F8042BD30744BF12
:1007E000A9F101039A18091F042942F8045BFAD2FF
:1007F00013468C0744BF15809B1CC90748BF1D705A
:1008000050F8041B0029E7D130BC70472DE9F843AC
:100810000646DFF86C543078C10748D5686800F0A8
:100820000C00042807D0686800F00C0008280BD1E1
:100830006868C10308D52868810338D57068002826
:1008400040F0BE80012067E17068B0F5803F04D1C0
:10085000286840F48030286014E008B928680AE06D
:10086000B0F5A02F286806D140F4802028602968C0
:1008700041F4803105E020F480302860296821F4BB
:1008800080212960706868B1FFF73CFF0446286842
:10089000810300F19580FFF735FF001B6528F6D333
:1008A000032039E1FFF72EFF04462868810340F159
:1008B0008780FFF727FF001B6528F6D3F0E7FFF7D7
:1008C00021FF001B022840F2AA80E9E7306970B1DD
:1008D00001213960FFF716FF04462868810700F1FF
:1008E000DC80FFF70FFF001B0228F6D9D8E738603D
:1008F000FFF708FF04462968880765D5FFF702FF60
:10090000001B0228F7D9CBE70860FFF7FBFE04467F
:10091000686A810777D5FFF7F5FE001B0228F7D933
:10092000BEE708B9286A09E00528286A06D140F020
:1009300004002862286A40F0010005E040084000F9
:100940002862286A20F00400286241F28938F068A1
:1009500068B1FFF7D7FE8146286A810700F1AA80B7
:10096000FFF7D0FEA0EB09004045F5D398E7FFF76D
:10097000C9FE8146286A810740F19C80FFF7C2FECC
:10098000A0EB09004045F5D38AE7FFF7BBFE001B4B
:10099000022840F2A28083E7FFF7B4FE001B022882
:1009A00040F2B5807CE700F0B9F804462868810180
:1009B00040F1B180FFF7A6FE001B0228F6D96FE7D1
:1009C0003078DFF8C87281071BD5686810F00C0F0B
:1009D00009D0686800F00C0008287FF477AF6868D9
:1009E000C1033FF573AF2868810703D5306901283B
:1009F0007FF428AF2968706921F0F80141EAC0014D
:100A00002960317808071DD5B069DFF88412002805
:100A10003FF47AAF01220A60FFF774FE0446686A69
:100A200081077FF54CAFDFF85C020268D2084FF413
:100A30007A71B2FBF1F1009100BF0098411E0028CD
:100A40000091F9D13078410739D5E8690024C10017
:100A500009D4E86940F08050E8610124E86900F0B9
:100A6000805000900098DFF82C82D8F80000C10573
:100A70001BD4D8F8000040F48070C8F80000FFF7DD
:100A800041FE8146D8F80000C1050ED4FFF73AFEBA
:100A9000A0EB09006528F5D302E72868716920F00A
:100AA000F80040EAC1002860ABE7F06801287FF455
:100AB00038AF3FE71CB1E86920F08050E861F06989
:100AC00048B3696801F00C0108293FF4BBAE022865
:100AD0007FF469AF00F022F80446286881013FF5F1
:100AE00054AF306AB0F5803F05D1E96AB0680909B2
:100AF00040EA0111E9626A68306A716A22F474128C
:100B000002430A436A60012000F009F8044628689D
:100B100081017FF541AF0020BDE8F28300203866F7
:100B2000FFF7F0BDF8B50546554C2868810712D58A
:100B3000400703D5616841F4E061616028780107EE
:100B400003D5606840F4605060606168A86821F077
:100B5000F001014361602978C80735D5686801282C
:100B60001BD121688A0320D56168890840EA810089
:100B7000606041F28937FFF7C5FD064668680128C5
:100B800015D1606800F00C0004281DD0FFF7BAFDF5
:100B9000801BB842F5D30320F2BD0228216802D1A0
:100BA0008A01E1D401E08A07DED40120F2BD0228E7
:100BB0002CD1606800F00C00082805D0FFF7A2FDDA
:100BC000801BB842F5D3E6E72878410705D562686F
:100BD000E86822F4E062024362602978080706D5DB
:100BE0006168286921F4605141EAC001616000F048
:100BF00017F862682849234BC2F30312895CC84086
:100C00001860002000F086FA0020F2BD606810F045
:100C10000C0FD9D0FFF776FD801BB842F6D3BAE7A8
:100C20001E4919480A6802F00C03082B00D07047CF
:100C300010B500BF1CA4C2F38343D203E35C09D503
:100C4000896A00BF1CA201F00F015843535CB0FB3E
:100C5000F3F010BD18461249484310BD09480F4A29
:100C6000006813680F49C3F3022206E005480B4AE7
:100C7000006813680B49C3F3C222895CC8407047FF
:100C8000001002400C00002000127A0000004242D6
:100C90008004424200700040101700080410024017
:100CA00000093D006C180008020304050607080946
:100CB0000A0B0C0D0E0F10100102030405060708A5
:100CC000090A0B0C0D0E0F1030B55449544A002080
:100CD00001F10803C4B2401CC5B243F82420102D12
:100CE000F8DB002008704870486030BD10B54B49F3
:100CF00091F9012091F90000904201D1484810BDBE
:100D000001EB8200521C52B2D31002EB13748068C4
:100D10002411A2EB04124A7010BD38B5414D0446AF
:100D20002868041902E0FFF7E1FF80472868A04225
:100D3000F9D331BD38B504463B4D0CE000F010F856
:100D40006420FFF7EAFF012200F00BF86420FFF7B0
:100D5000E4FF00F005F82046441E0028EED131BD26
:100D600000220221284600F054B930480178427828
:100D70008A4204D0A1F13002092A38BF417040787C
:100D8000302808D032280CD033280CD034280CD08E
:100D900038280CD0704700224FF40041224800F060
:100DA00038B9022004E0032002E0042000E008201B
:100DB000C0E71C480168491C0160704738B500F065
:100DC000C9F9FFF781FF00F03DF800F0CFF9FFF718
:100DD0003BFC00F02DFA00F033FA00F059FA00F075
:100DE00062FA1348134C114D00F0F1FA124800F06A
:100DF000EEFA124800F0EBFA114800F0E8FA4FF46E
:100E00007A73012229462046FFF7C5F9FFF7ADFFA7
:100E1000FFF76CFF8047F2E70000000010000020A1
:100E20008F0E000898010020000801409C0100205E
:100E3000580000205801002098000020D800002011
:100E40001801002018B58FB005A8282100F01CF863
:100E50006846142100F018F80121099110220021A0
:100E600002240A920C91059405A8FFF7CFFC0F20ED
:100E70000090002101910291039104916846FFF7CF
:100E800051FE10B010BD7047002200F0ADBB70479E
:100E90002DE9F843024600200025604BDFF88091E1
:100EA00001270E68AF403E40BE4240F0AC804C6827
:100EB0006CB3012C20D0022C23D0032C32D0112C67
:100EC0001CD0122C20D0DFF85CE174451CBFDFF889
:100ED00058E174451BD0DFF854E174451CBFDFF8BE
:100EE00050E1744513D0DFF84CE174451CBFDFF8C6
:100EF00048E174450BD016E0C86814E0C868001DCE
:100F000011E0C86808300EE0C8680C300BE0886853
:100F100008B9042007E0012819BF082057610820FC
:100F2000176100E00020B6F5807F03D294464FEAB7
:100F3000850E05E0A5F1080402F1040C4FEA840EC9
:100F40000F27DCF8008007FA0EF428EA040400FA00
:100F50000EFE4EEA0404CCF800404C68E40052D582
:100F6000D9F80040DFF8D4E044F00104C9F80040AB
:100F70004FEA950CD9F8004004F0010400944FEAC0
:100F80008508009C5EF82C4008F00C0807FA08F76A
:100F900024EA07072A4CA24208BF00240ED0294C9D
:100FA000A24208BF012409D0274CA24208BF022454
:100FB00004D0264CA2420CBF0324042404FA08F4F3
:100FC00027434EF82C70F7434C68E4031C684CBF71
:100FD00034433C401C604C68A4035C684CBF344301
:100FE0003C405C604C68E4029C684CBF34433C402D
:100FF0009C604C68A40203D5DF683E43DE6002E0DB
:10100000DE683740DF606D1C0F2D7FF649AFBDE80D
:10101000F18302B909040161704700000004014036
:1010200018100240000011100000121000002110E2
:1010300000002210000031100000321008000140B2
:1010400000080140000C0140001001400014014064
:101050000901020006D5294A00F00F00104400F8EB
:10106000041C7047264B19547047264B19684FF6DD
:10107000FF020002114000F4E060084322490843E7
:101080001860704738B51F4B1C68C4F30223C3F1C6
:101090000704052C28BF04241D1D072D34BF002381
:1010A000DB1E012505FA04F4641E2140994005FA6F
:1010B00003F35B1E1A401143BDE83440C8E7012228
:1010C00000F01F01114BFFE78A40400943F8202040
:1010D000704710B5401EB0F1807F01D3012010BDD4
:1010E0000B4C60600F214FF0FF30FFF7B1FF002184
:1010F000A16007202060002010BD000018ED00E076
:1011000000E400E00CED00E00000FA0500E100E082
:1011100010E000E038B50D4D0D4B2A7804464FF431
:101120007A711868B1FBF2F2B0FBF2F0FFF7D1FF71
:1011300050B9102C08D2002221464FF0FF30FFF7A3
:10114000A1FFAC60002032BD012032BD00000020B4
:101150000C00002080B50320FFF787FF0020FFF779
:10116000D9FF00F05BFA002002BD000078B585B021
:1011700068461021FFF788FE29482A4D046844F08C
:101180001004046048F2FE060168274C01F01001CB
:1011900004910499026842F004020260036803F0BB
:1011A000040304930499026842F0080202600022DA
:1011B000006800F008000490314604982046FFF7CC
:1011C00028FF002203212846FFF723FF01220821E0
:1011D0002846FFF71EFF4FF40050002100900191B8
:1011E0000122029269461148FFF752FE0121019146
:1011F0000022022103910292009669462046FFF7E1
:1012000047FE0B210091012201920021029102224E
:10121000039269462846FFF73BFE06B070BD00000A
:1012200018100240000C014000080140001001406D
:101230001CB500BF5BA0524C00F01EF8514806E000
:101240001CB500BF59A0504C00F016F84F48206064
:101250008022E160A261204600F0ACF808B1FFF7FF
:1012600012FE0021009101912046694600F0FCF930
:1012700008B1FFF708FE13BDD0E90023CDE9002334
:101280004FF4FA5100226160A26040F2E7317047EA
:1012900080B53F483F4901604FF4FA5200F00DF825
:1012A00000B116E001BD80B53B483C490160082211
:1012B00000F003F800B10CE001BD4260002340F2F1
:1012C000E73180228360C16003614361826100F085
:1012D00071B8BDE80140FFF7D6BD80B50068294A66
:1012E0002F4990420FD1486840F01000486000221A
:1012F000486800F010000090002100983620FFF7A9
:10130000C1FE362037E0214A90420FD1486840F0B4
:10131000200048600022486800F020000090002172
:1013200000983720FFF7AEFE372024E0194A90429C
:101330000FD1086840F4003008600022096801F409
:1013400000310091002100981920FFF79BFE192021
:1013500011E0124A904212D1086840F480200860DF
:101360000022096801F480210091002100981A20D0
:10137000FFF788FE1A20BDE80240FFF7A0BE01BDBE
:101380005800002000100040980000200014004089
:10139000D80000200044014018010020004801400E
:1013A00018100240000000000000000000000000D3
:1013B0000000000038B5040001D1012032BD00F06A
:1013C0001FF818B900F018F8FFF787FF0AE0006867
:1013D000C16841F00101C160026842F0010202608F
:1013E0000020704702206870211D206800F0B0F8CE
:1013F00001206870002032BD00212970204670470E
:1014000004F13C056878704710B50446206801690E
:101410008A0715D5C1688A0712D56FF002010161EC
:1014200001222277806910F0030F204602D000F0DD
:1014300040F903E000F03EF900F087F80020207743
:10144000206801694A0715D5C1684A0712D56FF0AF
:101450000401016102222277806910F4407F204656
:1014600002D000F026F903E000F024F900F06DF856
:1014700000202077206801690A0715D5C1680A078E
:1014800012D56FF00801016104222277C06910F0C3
:10149000030F204602D000F00CF903E000F00AF937
:1014A00000F053F80020207720680169CA0615D59E
:1014B000C168CA0612D56FF01001016108222277B7
:1014C000C06910F4407F204602D000F0F2F803E03B
:1014D00000F0F0F800F039F800202077206801696A
:1014E000CA0708D5C168CA0705D56FF001010161B7
:1014F000204600F0E0F8206801690A0608D5C168B6
:101500000A0605D56FF080010161204600F0D4F88D
:10151000206801694A0608D5C1684A0605D56FF0FA
:1015200040010161204600F0C8F8206801698A0680
:101530000AD5C1688A0607D56FF0200101612046EF
:10154000BDE8104000F0BAB810BD204600F0B7B8B2
:10155000F0B5DFF87CE003681E4C1F4D1F4E204F96
:10156000DFF880C0704518BFB0F1804F03D06045F0
:1015700018BFB84209D14A6823F07003134370457D
:101580001CBFB0F1804F604507D0B84218BFB042D1
:1015900003D0A84218BFA04203D1CA6823F4407305
:1015A00013434A6923F080031343036070458B683B
:1015B000C36218BFB0420A68826203D0A84218BF53
:1015C000A04201D10969016301224261F0BD00001E
:1015D000002C01400048014000440140004001400F
:1015E000000800400004004000B500BF130096460C
:1015F0009446103928BFA0E80C50FAD85FEA417C25
:1016000028BF0CC048BF40F8042BC90728BF20F8EA
:10161000022B48BF00F8012B00BD0000104881B02C
:10162000016841F001010160026802F001020092CC
:101630000099426842F080524260406800F0805059
:10164000009000980748016821F0E06141F0806156
:101650000160016821F0E061016001B0704700BFE6
:10166000181002400400014030B500F13C031A7824
:10167000012A01D1022030BD01221A7002245C70BF
:101680000268546824F070045460046865680A684D
:10169000154365600268946824F0800494600268D1
:1016A00094684868044394600121597000201870C0
:1016B00030BD70477047704770477047704770473C
:1016C00010B50F4A0F49106840F0010010605368D0
:1016D0000D480B405360146804401460116821F4F5
:1016E000802111604FF41F01506820F4FE0050600B
:1016F00091600020D0624FF00061044A116010BD7B
:10170000001002400000FFF8FFFFF6FE08ED00E0C9
:1017100000000000000000000102030406070809A1
:101720007047FEE7FEE7FEE7FEE770477047704749
:1017300000F01EB80948FFF767BE80B50848FFF7FC
:1017400063FEBDE80140FFF734BB0648FEF788BDE5
:101750000548FFF759BE0548FFF756BED8000020E0
:101760001801002058010020580000209800002097
:1017700002494A68087882184A60704700000020D1
:1017800030B450F8041B79B1026843680244083051
:10179000DC0744BFA9F10104E31852F8045B43F8E5
:1017A000045B091FF9D1ECE730BC704710B507495D
:1017B00079441831064C7C44163404E00A68081D4C
:1017C000114488470146A142F8D110BD080000002D
:1017D00028000000FFEFFFFF900100001000002034
:1017E000000000009DFFFFFF1000000064000000EB
:1017F000000000200000000000F00DF8002801D0DB
:10180000FFF7D4FFAFF300800020AFF30080FFF7B5
:10181000D5FA00F002F80120704700F001B800008E
:101820000746384600F002F8FBE7000080B5AFF34A
:101830000080024A11001820ABBEFBE72600020020
:101840000148804701480047C11600086118000898
:1018500001000000000000001000000000366E01D2
:10186000AFF30080AFF30080FFF7C6FF0000000079
:1018700001020304FFF7FEBFFFF7FEBFFFF7FEBF45
:10188000FFF7FEBFFFF7FEBFFFF7FEBFFFF7FEBF8C
:10189000FFF7FEBFFFF7FEBFFFF7FEBFFFF7FEBF7C
:1018A000FFF7FEBFFFF7FEBFFFF7FEBFFFF7FEBF6C
:1018B000FFF7FEBFFFF7FEBFFFF7FEBFFFF7FEBF5C
:1018C000FFF7FEBFFFF7FEBFFFF7FEBFFFF7FEBF4C
:1018D000FFF7FEBFFFF7FEBFFFF7FEBFFFF7FEBF3C
:1018E000FFF7FEBFFFF7FEBFFFF7FEBFFFF7FEBF2C
:1018F000FFF7FEBFFFF7FEBFFFF7FEBFFFF7FEBF1C
:04190000FFF7FEBF30
:040000050800186176
:00000001FF
